{
    "_format": "hh-sol-artifact-1",
    "contractName": "Web3RSVP",
    "sourceName": "contracts/web3RSVP.sol",
    "abi": [
        {
            "anonymous": false,
            "inputs": [
                {
                    "indexed": false,
                    "internalType": "bytes32",
                    "name": "eventID",
                    "type": "bytes32"
                },
                {
                    "indexed": false,
                    "internalType": "address",
                    "name": "attendeeAddress",
                    "type": "address"
                }
            ],
            "name": "ConfirmedAttendee",
            "type": "event"
        },
        {
            "anonymous": false,
            "inputs": [
                {
                    "indexed": false,
                    "internalType": "bytes32",
                    "name": "eventID",
                    "type": "bytes32"
                }
            ],
            "name": "DepositsPaidOut",
            "type": "event"
        },
        {
            "anonymous": false,
            "inputs": [
                {
                    "indexed": false,
                    "internalType": "bytes32",
                    "name": "eventID",
                    "type": "bytes32"
                },
                {
                    "indexed": false,
                    "internalType": "address",
                    "name": "creatorAddress",
                    "type": "address"
                },
                {
                    "indexed": false,
                    "internalType": "uint256",
                    "name": "eventTimestamp",
                    "type": "uint256"
                },
                {
                    "indexed": false,
                    "internalType": "uint256",
                    "name": "maxCapacity",
                    "type": "uint256"
                },
                {
                    "indexed": false,
                    "internalType": "uint256",
                    "name": "deposit",
                    "type": "uint256"
                },
                {
                    "indexed": false,
                    "internalType": "string",
                    "name": "eventDataCID",
                    "type": "string"
                }
            ],
            "name": "NewEventCreated",
            "type": "event"
        },
        {
            "anonymous": false,
            "inputs": [
                {
                    "indexed": false,
                    "internalType": "bytes32",
                    "name": "eventID",
                    "type": "bytes32"
                },
                {
                    "indexed": false,
                    "internalType": "address",
                    "name": "attendeeAddress",
                    "type": "address"
                }
            ],
            "name": "NewRSVP",
            "type": "event"
        },
        {
            "inputs": [
                {
                    "internalType": "bytes32",
                    "name": "eventId",
                    "type": "bytes32"
                }
            ],
            "name": "confirmAllAttendees",
            "outputs": [],
            "stateMutability": "nonpayable",
            "type": "function"
        },
        {
            "inputs": [
                {
                    "internalType": "bytes32",
                    "name": "eventId",
                    "type": "bytes32"
                },
                {
                    "internalType": "address",
                    "name": "attendee",
                    "type": "address"
                }
            ],
            "name": "confirmAttendee",
            "outputs": [],
            "stateMutability": "nonpayable",
            "type": "function"
        },
        {
            "inputs": [
                {
                    "internalType": "uint256",
                    "name": "eventTimestamp",
                    "type": "uint256"
                },
                {
                    "internalType": "uint256",
                    "name": "deposit",
                    "type": "uint256"
                },
                {
                    "internalType": "uint256",
                    "name": "maxCapacity",
                    "type": "uint256"
                },
                {
                    "internalType": "string",
                    "name": "eventDataCID",
                    "type": "string"
                }
            ],
            "name": "createNewEvent",
            "outputs": [],
            "stateMutability": "nonpayable",
            "type": "function"
        },
        {
            "inputs": [
                {
                    "internalType": "bytes32",
                    "name": "eventId",
                    "type": "bytes32"
                }
            ],
            "name": "createNewRSVP",
            "outputs": [],
            "stateMutability": "payable",
            "type": "function"
        },
        {
            "inputs": [
                {
                    "internalType": "bytes32",
                    "name": "",
                    "type": "bytes32"
                }
            ],
            "name": "idToEvent",
            "outputs": [
                {
                    "internalType": "bytes32",
                    "name": "eventId",
                    "type": "bytes32"
                },
                {
                    "internalType": "string",
                    "name": "eventDataCID",
                    "type": "string"
                },
                {
                    "internalType": "address",
                    "name": "eventOwner",
                    "type": "address"
                },
                {
                    "internalType": "uint256",
                    "name": "eventTimestamp",
                    "type": "uint256"
                },
                {
                    "internalType": "uint256",
                    "name": "deposit",
                    "type": "uint256"
                },
                {
                    "internalType": "uint256",
                    "name": "maxCapacity",
                    "type": "uint256"
                },
                {
                    "internalType": "bool",
                    "name": "paidOut",
                    "type": "bool"
                }
            ],
            "stateMutability": "view",
            "type": "function"
        },
        {
            "inputs": [
                {
                    "internalType": "bytes32",
                    "name": "eventId",
                    "type": "bytes32"
                }
            ],
            "name": "withdrawUnclaimedDeposits",
            "outputs": [],
            "stateMutability": "nonpayable",
            "type": "function"
        }
    ],
    "bytecode": "0x608060405234801561001057600080fd5b50612190806100206000396000f3fe6080604052600436106100545760003560e01c806292098c1461005957806317f0165a146100825780636dcdf2cd1461009e57806379747571146100c7578063909ef021146100f0578063acdbe01214610133575b600080fd5b34801561006557600080fd5b50610080600480360381019061007b9190611645565b61015c565b005b61009c600480360381019061009791906115e0565b610378565b005b3480156100aa57600080fd5b506100c560048036038101906100c09190611609565b61060b565b005b3480156100d357600080fd5b506100ee60048036038101906100e991906115e0565b610b24565b005b3480156100fc57600080fd5b50610117600480360381019061011291906115e0565b610fdc565b60405161012a9796959493929190611a7e565b60405180910390f35b34801561013f57600080fd5b5061015a600480360381019061015591906115e0565b6110d3565b005b6000333087878760405160200161017795949392919061195c565b60405160208183030381529060405280519060200120905060608060405180610120016040528084815260200186868080601f016020809104026020016040519081016040528093929190818152602001838380828437600081840152601f19601f8201169050808301925050505050505081526020013373ffffffffffffffffffffffffffffffffffffffff1681526020018981526020018881526020018781526020018381526020018281526020016000151581525060008085815260200190815260200160002060008201518160000155602082015181600101908051906020019061026792919061142a565b5060408201518160020160006101000a81548173ffffffffffffffffffffffffffffffffffffffff021916908373ffffffffffffffffffffffffffffffffffffffff160217905550606082015181600301556080820151816004015560a0820151816005015560c08201518160060190805190602001906102e99291906114b0565b5060e08201518160070190805190602001906103069291906114b0565b506101008201518160080160006101000a81548160ff0219169083151502179055509050507f2553138c3f9c9008f266dbdbe9fc64f5b71e098d06ef714a190a65a8b9fc6bf383338a898b8a8a6040516103669796959493929190611a14565b60405180910390a15050505050505050565b60008060008381526020019081526020016000209050806004015434146103d4576040517f08c379a00000000000000000000000000000000000000000000000000000000081526004016103cb90611bb4565b60405180910390fd5b806003015442111561041b576040517f08c379a000000000000000000000000000000000000000000000000000000000815260040161041290611b54565b60405180910390fd5b8060050154816006018054905010610468576040517f08c379a000000000000000000000000000000000000000000000000000000000815260040161045f90611b94565b60405180910390fd5b60005b81600601805490508160ff161015610568573373ffffffffffffffffffffffffffffffffffffffff16826006018260ff16815481106104d3577f4e487b7100000000000000000000000000000000000000000000000000000000600052603260045260246000fd5b9060005260206000200160009054906101000a900473ffffffffffffffffffffffffffffffffffffffff1673ffffffffffffffffffffffffffffffffffffffff161415610555576040517f08c379a000000000000000000000000000000000000000000000000000000000815260040161054c90611b74565b60405180910390fd5b808061056090611e52565b91505061046b565b5080600601339080600181540180825580915050600190039060005260206000200160009091909190916101000a81548173ffffffffffffffffffffffffffffffffffffffff021916908373ffffffffffffffffffffffffffffffffffffffff1602179055507fb79f4240bbdd272d98e02a5db7f0cf156e5fc000961c517670a26eeeec63ed9082336040516105ff9291906119eb565b60405180910390a15050565b600080600084815260200190815260200160002090508060020160009054906101000a900473ffffffffffffffffffffffffffffffffffffffff1673ffffffffffffffffffffffffffffffffffffffff163373ffffffffffffffffffffffffffffffffffffffff16146106b3576040517f08c379a00000000000000000000000000000000000000000000000000000000081526004016106aa90611c34565b60405180910390fd5b600080600090505b82600601805490508160ff1610156107ea578373ffffffffffffffffffffffffffffffffffffffff16836006018260ff1681548110610723577f4e487b7100000000000000000000000000000000000000000000000000000000600052603260045260246000fd5b9060005260206000200160009054906101000a900473ffffffffffffffffffffffffffffffffffffffff1673ffffffffffffffffffffffffffffffffffffffff1614156107d757826006018160ff16815481106107a9577f4e487b7100000000000000000000000000000000000000000000000000000000600052603260045260246000fd5b9060005260206000200160009054906101000a900473ffffffffffffffffffffffffffffffffffffffff1691505b80806107e290611e52565b9150506106bb565b508273ffffffffffffffffffffffffffffffffffffffff168173ffffffffffffffffffffffffffffffffffffffff1614610859576040517f08c379a000000000000000000000000000000000000000000000000000000000815260040161085090611bf4565b60405180910390fd5b60005b82600701805490508160ff161015610ae4578373ffffffffffffffffffffffffffffffffffffffff16836007018260ff16815481106108c4577f4e487b7100000000000000000000000000000000000000000000000000000000600052603260045260246000fd5b9060005260206000200160009054906101000a900473ffffffffffffffffffffffffffffffffffffffff1673ffffffffffffffffffffffffffffffffffffffff161415610946576040517f08c379a000000000000000000000000000000000000000000000000000000000815260040161093d90611b14565b60405180910390fd5b82600701849080600181540180825580915050600190039060005260206000200160009091909190916101000a81548173ffffffffffffffffffffffffffffffffffffffff021916908373ffffffffffffffffffffffffffffffffffffffff16021790555060008473ffffffffffffffffffffffffffffffffffffffff1684600401546040516109d5906119bb565b60006040518083038185875af1925050503d8060008114610a12576040519150601f19603f3d011682016040523d82523d6000602084013e610a17565b606091505b5050905080610a905783600701805480610a5a577f4e487b7100000000000000000000000000000000000000000000000000000000600052603160045260246000fd5b6001900381819060005260206000200160006101000a81549073ffffffffffffffffffffffffffffffffffffffff021916905590555b80610ad0576040517f08c379a0000000000000000000000000000000000000000000000000000000008152600401610ac790611b34565b60405180910390fd5b508080610adc90611e52565b91505061085c565b507ff8d1583a733d83bdd3ef5464129d0a95a36d62b382d31c6d0467a61f4264381b8484604051610b169291906119eb565b60405180910390a150505050565b60008060008381526020019081526020016000206040518061012001604052908160008201548152602001600182018054610b5e90611e20565b80601f0160208091040260200160405190810160405280929190818152602001828054610b8a90611e20565b8015610bd75780601f10610bac57610100808354040283529160200191610bd7565b820191906000526020600020905b815481529060010190602001808311610bba57829003601f168201915b505050505081526020016002820160009054906101000a900473ffffffffffffffffffffffffffffffffffffffff1673ffffffffffffffffffffffffffffffffffffffff1673ffffffffffffffffffffffffffffffffffffffff16815260200160038201548152602001600482015481526020016005820154815260200160068201805480602002602001604051908101604052809291908181526020018280548015610cd957602002820191906000526020600020905b8160009054906101000a900473ffffffffffffffffffffffffffffffffffffffff1673ffffffffffffffffffffffffffffffffffffffff1681526020019060010190808311610c8f575b5050505050815260200160078201805480602002602001604051908101604052809291908181526020018280548015610d6757602002820191906000526020600020905b8160009054906101000a900473ffffffffffffffffffffffffffffffffffffffff1673ffffffffffffffffffffffffffffffffffffffff1681526020019060010190808311610d1d575b505050505081526020016008820160009054906101000a900460ff161515151581525050905080610100015115610dd3576040517f08c379a0000000000000000000000000000000000000000000000000000000008152600401610dca90611bd4565b60405180910390fd5b62093a808160600151610de69190611c9b565b421015610e28576040517f08c379a0000000000000000000000000000000000000000000000000000000008152600401610e1f90611c54565b60405180910390fd5b806040015173ffffffffffffffffffffffffffffffffffffffff163373ffffffffffffffffffffffffffffffffffffffff1614610e9a576040517f08c379a0000000000000000000000000000000000000000000000000000000008152600401610e9190611c14565b60405180910390fd5b60008160e00151518260c0015151610eb29190611d4b565b90506000826080015182610ec69190611cf1565b905060018361010001901515908115158152505060003373ffffffffffffffffffffffffffffffffffffffff1682604051610f00906119bb565b60006040518083038185875af1925050503d8060008114610f3d576040519150601f19603f3d011682016040523d82523d6000602084013e610f42565b606091505b5050905080610f5e576000846101000190151590811515815250505b80610f9e576040517f08c379a0000000000000000000000000000000000000000000000000000000008152600401610f9590611af4565b60405180910390fd5b7f393073ea1365f611c3d2f240c992960d2b99dc81715555d3fc40fc55ba80af9c85604051610fcd91906119d0565b60405180910390a15050505050565b600060205280600052604060002060009150905080600001549080600101805461100590611e20565b80601f016020809104026020016040519081016040528092919081815260200182805461103190611e20565b801561107e5780601f106110535761010080835404028352916020019161107e565b820191906000526020600020905b81548152906001019060200180831161106157829003601f168201915b5050505050908060020160009054906101000a900473ffffffffffffffffffffffffffffffffffffffff16908060030154908060040154908060050154908060080160009054906101000a900460ff16905087565b6000806000838152602001908152602001600020604051806101200160405290816000820154815260200160018201805461110d90611e20565b80601f016020809104026020016040519081016040528092919081815260200182805461113990611e20565b80156111865780601f1061115b57610100808354040283529160200191611186565b820191906000526020600020905b81548152906001019060200180831161116957829003601f168201915b505050505081526020016002820160009054906101000a900473ffffffffffffffffffffffffffffffffffffffff1673ffffffffffffffffffffffffffffffffffffffff1673ffffffffffffffffffffffffffffffffffffffff1681526020016003820154815260200160048201548152602001600582015481526020016006820180548060200260200160405190810160405280929190818152602001828054801561128857602002820191906000526020600020905b8160009054906101000a900473ffffffffffffffffffffffffffffffffffffffff1673ffffffffffffffffffffffffffffffffffffffff168152602001906001019080831161123e575b505050505081526020016007820180548060200260200160405190810160405280929190818152602001828054801561131657602002820191906000526020600020905b8160009054906101000a900473ffffffffffffffffffffffffffffffffffffffff1673ffffffffffffffffffffffffffffffffffffffff16815260200190600101908083116112cc575b505050505081526020016008820160009054906101000a900460ff1615151515815250509050806040015173ffffffffffffffffffffffffffffffffffffffff163373ffffffffffffffffffffffffffffffffffffffff16146113ae576040517f08c379a00000000000000000000000000000000000000000000000000000000081526004016113a590611c34565b60405180910390fd5b60005b8160c00151518160ff16101561142557611412838360c001518360ff1681518110611405577f4e487b7100000000000000000000000000000000000000000000000000000000600052603260045260246000fd5b602002602001015161060b565b808061141d90611e52565b9150506113b1565b505050565b82805461143690611e20565b90600052602060002090601f016020900481019282611458576000855561149f565b82601f1061147157805160ff191683800117855561149f565b8280016001018555821561149f579182015b8281111561149e578251825591602001919060010190611483565b5b5090506114ac919061153a565b5090565b828054828255906000526020600020908101928215611529579160200282015b828111156115285782518260006101000a81548173ffffffffffffffffffffffffffffffffffffffff021916908373ffffffffffffffffffffffffffffffffffffffff160217905550916020019190600101906114d0565b5b509050611536919061153a565b5090565b5b8082111561155357600081600090555060010161153b565b5090565b60008135905061156681612115565b92915050565b60008135905061157b8161212c565b92915050565b60008083601f84011261159357600080fd5b8235905067ffffffffffffffff8111156115ac57600080fd5b6020830191508360018202830111156115c457600080fd5b9250929050565b6000813590506115da81612143565b92915050565b6000602082840312156115f257600080fd5b60006116008482850161156c565b91505092915050565b6000806040838503121561161c57600080fd5b600061162a8582860161156c565b925050602061163b85828601611557565b9150509250929050565b60008060008060006080868803121561165d57600080fd5b600061166b888289016115cb565b955050602061167c888289016115cb565b945050604061168d888289016115cb565b935050606086013567ffffffffffffffff8111156116aa57600080fd5b6116b688828901611581565b92509250509295509295909350565b6116ce81611d7f565b82525050565b6116e56116e082611d7f565b611e7c565b82525050565b6116f481611d91565b82525050565b61170381611d9d565b82525050565b60006117158385611c8a565b9350611722838584611dde565b61172b83611f08565b840190509392505050565b600061174182611c74565b61174b8185611c8a565b935061175b818560208601611ded565b61176481611f08565b840191505092915050565b600061177c601483611c8a565b915061178782611f26565b602082019050919050565b600061179f600f83611c8a565b91506117aa82611f4f565b602082019050919050565b60006117c2601483611c8a565b91506117cd82611f78565b602082019050919050565b60006117e5601083611c8a565b91506117f082611fa1565b602082019050919050565b6000611808601183611c8a565b915061181382611fca565b602082019050919050565b600061182b601f83611c8a565b915061183682611ff3565b602082019050919050565b600061184e600a83611c8a565b91506118598261201c565b602082019050919050565b6000611871600c83611c8a565b915061187c82612045565b602082019050919050565b6000611894601283611c8a565b915061189f8261206e565b602082019050919050565b60006118b7600083611c7f565b91506118c282612097565b600082019050919050565b60006118da601383611c8a565b91506118e58261209a565b602082019050919050565b60006118fd600e83611c8a565b9150611908826120c3565b602082019050919050565b6000611920600983611c8a565b915061192b826120ec565b602082019050919050565b61193f81611dc7565b82525050565b61195661195182611dc7565b611ea0565b82525050565b600061196882886116d4565b60148201915061197882876116d4565b6014820191506119888286611945565b6020820191506119988285611945565b6020820191506119a88284611945565b6020820191508190509695505050505050565b60006119c6826118aa565b9150819050919050565b60006020820190506119e560008301846116fa565b92915050565b6000604082019050611a0060008301856116fa565b611a0d60208301846116c5565b9392505050565b600060c082019050611a29600083018a6116fa565b611a3660208301896116c5565b611a436040830188611936565b611a506060830187611936565b611a5d6080830186611936565b81810360a0830152611a70818486611709565b905098975050505050505050565b600060e082019050611a93600083018a6116fa565b8181036020830152611aa58189611736565b9050611ab460408301886116c5565b611ac16060830187611936565b611ace6080830186611936565b611adb60a0830185611936565b611ae860c08301846116eb565b98975050505050505050565b60006020820190508181036000830152611b0d8161176f565b9050919050565b60006020820190508181036000830152611b2d81611792565b9050919050565b60006020820190508181036000830152611b4d816117b5565b9050919050565b60006020820190508181036000830152611b6d816117d8565b9050919050565b60006020820190508181036000830152611b8d816117fb565b9050919050565b60006020820190508181036000830152611bad8161181e565b9050919050565b60006020820190508181036000830152611bcd81611841565b9050919050565b60006020820190508181036000830152611bed81611864565b9050919050565b60006020820190508181036000830152611c0d81611887565b9050919050565b60006020820190508181036000830152611c2d816118cd565b9050919050565b60006020820190508181036000830152611c4d816118f0565b9050919050565b60006020820190508181036000830152611c6d81611913565b9050919050565b600081519050919050565b600081905092915050565b600082825260208201905092915050565b6000611ca682611dc7565b9150611cb183611dc7565b9250827fffffffffffffffffffffffffffffffffffffffffffffffffffffffffffffffff03821115611ce657611ce5611eaa565b5b828201905092915050565b6000611cfc82611dc7565b9150611d0783611dc7565b9250817fffffffffffffffffffffffffffffffffffffffffffffffffffffffffffffffff0483118215151615611d4057611d3f611eaa565b5b828202905092915050565b6000611d5682611dc7565b9150611d6183611dc7565b925082821015611d7457611d73611eaa565b5b828203905092915050565b6000611d8a82611da7565b9050919050565b60008115159050919050565b6000819050919050565b600073ffffffffffffffffffffffffffffffffffffffff82169050919050565b6000819050919050565b600060ff82169050919050565b82818337600083830152505050565b60005b83811015611e0b578082015181840152602081019050611df0565b83811115611e1a576000848401525b50505050565b60006002820490506001821680611e3857607f821691505b60208210811415611e4c57611e4b611ed9565b5b50919050565b6000611e5d82611dd1565b915060ff821415611e7157611e70611eaa565b5b600182019050919050565b6000611e8782611e8e565b9050919050565b6000611e9982611f19565b9050919050565b6000819050919050565b7f4e487b7100000000000000000000000000000000000000000000000000000000600052601160045260246000fd5b7f4e487b7100000000000000000000000000000000000000000000000000000000600052602260045260246000fd5b6000601f19601f8301169050919050565b60008160601b9050919050565b7f4661696c656420746f2073656e74204574686572000000000000000000000000600082015250565b7f414c524541445920434c41494d45440000000000000000000000000000000000600082015250565b7f4661696c656420746f2073656e64204574686572000000000000000000000000600082015250565b7f414c52454144592048415050454e454400000000000000000000000000000000600082015250565b7f414c524541445920434f4e4649524d4544000000000000000000000000000000600082015250565b7f54686973206576656e7420686173207265616368656420636170616369747900600082015250565b7f4e4f5420454e4f55474800000000000000000000000000000000000000000000600082015250565b7f414c524541445920504149440000000000000000000000000000000000000000600082015250565b7f4e4f205253565020544f20434f4e4649524d0000000000000000000000000000600082015250565b50565b7f4d555354204245204556454e54204f574e455200000000000000000000000000600082015250565b7f4e4f5420415554484f52495a4544000000000000000000000000000000000000600082015250565b7f544f4f204541524c590000000000000000000000000000000000000000000000600082015250565b61211e81611d7f565b811461212957600080fd5b50565b61213581611d9d565b811461214057600080fd5b50565b61214c81611dc7565b811461215757600080fd5b5056fea2646970667358221220007a6b9c87dae3ec0c6f79aa88b33b4a18a3619e381048eb3d1bac67d4090b3664736f6c63430008040033",
    "linkReferences": {},
    "deployedLinkReferences": {}
}